:020000040800F2
:10000000704C00200101000863120008291200084A
:100010005F1200088B0D0008111700080000000097
:100020000000000000000000000000002114000893
:10003000470E000800000000E9120008190100083E
:100040001B0100081B0100081B0100081B01000820
:100050001B0100081B0100081B0100081B01000810
:100060001B0100081B0100081B0100081B01000800
:100070001B0100081B0100081B0100081B010008F0
:100080008F0D00081B0100081B0100081B01000860
:100090001B0100081B0100081B0100081B010008D0
:1000A0001B0100081B0100081B0100081B010008C0
:1000B0001B0100081B0100081B0100081B010008B0
:1000C0001B0100081B0100081B0100081B010008A0
:1000D0001B0100081B0100081B0100081B01000890
:1000E0001B0100081B0100081B010008DFF80CD0F1
:1000F00000F0FCFB0048004711220008704C002073
:100100000648804706480047FEE7FEE7FEE7FEE7B1
:10011000FEE7FEE7FEE7FEE7FEE7FEE70D15000857
:10012000ED00000800487047C841000810B50446BB
:10013000FFF7F8FF0068005D00F0010010BD40EA25
:1001400001039B0703D009E008C9121F08C0042A55
:10015000FAD203E011F8013B00F8013B521EF9D23C
:100160007047D2B201E000F8012B491EFBD2704764
:100170000022F6E710B513460A4604461946FFF773
:10018000F0FF204610BD421C10F8011B0029FBD1D6
:10019000801A7047CBB203E00178994203D0401C2B
:1001A000521EF9D20020704730B5044600200346A5
:1001B00000E05B1C934203D2E05CCD5C401BF8D0B6
:1001C00030BD2DE9F04791460F4680460446002693
:1001D00014F8015B2DB1FFF7A5FF0068405DC00773
:1001E000F6D12B2D02D02D2D18D0641E4A4639464B
:1001F000204600F067FA27B13968A14201D1C7F85B
:10020000008071054FF002040BD54042002803DD49
:1002100001F0A6FA0460A007BDE8F08746F4806606
:10022000E4E70028F8DA01F09BFA04606FF0004080
:10023000F2E72DE9FE4F804681EA0300C00F0C462D
:10024000009021F0004123F00045B8EB0200A941E5
:1002500005D24046214690461C460B46024623F0F6
:100260000040104347D0270DC7F30A00C3F30A51DB
:100270000290401A019040286BDAC3F3130040F457
:10028000801B0098924620B10023D2EB030A63EB57
:100290000B0B01985946C0F14002504600F0E1F9BD
:1002A00006460D4650465946019A00F0F9F910EB02
:1002B00008006141002487EA115284EAE7731A4377
:1002C00040D0009A62B3019A012A4FEA075215DC26
:1002D000001B61EB02014FF0004202EA0752CDE938
:1002E0000042001C41F5801132462B4600F097FA7F
:1002F00003B0BDE8F08F40462146F9E7001B61EBF3
:100300000201001C41F5801300185B412018A2F582
:10031000001747EB030140EAD570B6196D4111E0B3
:100320006D084FEA360645EAC0754FEA0752001BD2
:1003300061EB0201001C41F5801149084FEA3000D1
:100340000019514132462B4603B0BDE8F04F00F092
:1003500057BA0098012240000023D0EB020263EB61
:10036000E073009821464FEAE074B8EB000061EBBF
:100370000401E9E783F000435BE781F0004158E7BF
:100380002DE9FE4F81EA030404F0004421F000410E
:1003900000944FF0000B23F0004350EA01045ED0BC
:1003A00052EA03045BD0C3F30A54C1F30A552C4448
:1003B000A4F2F3340194A0FB0254C1F3130141F4FD
:1003C0008011C3F3130343F4801301FB024400FBC9
:1003D000034E840A970A44EA815447EA8357A4FBF0
:1003E000076802958D0A05FB07854FEA932C04FBED
:1003F0000C542705029D4FEA065847EA1637B5EB1D
:1004000008056EEB070C870E920E47EA811742EA49
:100410008312A7FB0201B6EB0B0164EB00042B0D6A
:1004200043EA0C335E1844EB1C50DA465146E7FBB6
:100430000201C5F313044FEA0B3343EA14534FEAA6
:100440000432019C43EA0603A4F10C040294009CCC
:10045000CDE900B400F0E3F903B0BDE8F08F00206F
:100460000146F9E72DE9F04D81EA030404F0004B61
:1004700021F0004514464FF0000A23F0004150EAF5
:10048000050220D054EA01021DD0C5F30A570246E6
:10049000C5F31303C1F31300C1F30A5640F48015EA
:1004A00043F48013A7EB0608101BD64608F2FD386C
:1004B00073EB050002D308F1010801E092185B41DB
:1004C000B8F1000F03DA00200146BDE8F08D0020EE
:1004D0004FF48011064684460EE0171B73EB0507A8
:1004E00005D3121B63EB050306434CEA010C4908D4
:1004F0004FEA300092185B4150EA0107EDD152EA11
:10050000030012D082EA040083EA0501084305D003
:10051000101BAB4106D20122002306E000224FF05F
:10052000004302E06FF0010253101AEB06004CEB9F
:10053000085110EB0A0041EB0B01BDE8F04D00F053
:100540005FB90EB5C10F80EAE0700844CA07002108
:1005500040F233438DE80E000A460B4600F05FF987
:1005600003B000BD70B5C1F30A5201F0004500248C
:10057000C1F3130140F2FF3341F480119A4201DAD2
:10058000002070BD40F233439A42A2F2334203DCB2
:10059000524200F075F800E090402C43F1D0404208
:1005A00070BD000030B5041E71F1000404DB4FF093
:1005B0000044404264EB0101141E73F1000405DBAA
:1005C0001C464FF00043524263EB0403994208BFBC
:1005D000904230BD30B50B46014600202022012458
:1005E00009E021FA02F59D4205D303FA02F5491B01
:1005F00004FA02F52844151EA2F10102F1DC30BD17
:100600002DE9F05F0546002092469B468846064647
:10061000814640241BE0284641464746224600F0DA
:100620002FF853465A46C01A914110D31146184626
:10063000224600F016F82D1A67EB01084F462246B5
:100640000120002100F00DF817EB00094E41201E9B
:10065000A4F10104DFDC484631462A464346BDE8A2
:10066000F09F202A04DB203A00FA02F100207047B4
:100670009140C2F1200320FA03F3194390407047E0
:10068000202A04DB203A21FA02F00021704721FAE7
:1006900002F3D040C2F1200291400843194670474E
:1006A000202A06DBCB17203A41FA02F043EAE07336
:1006B00006E041FA02F3D040C2F120029140084323
:1006C000194670472DE9F05F8246007800271546ED
:1006D0008B460AF10104B946302801D09DB113E0E0
:1006E00014F8010B0127782803D0582801D045B110
:1006F0000AE00DB1102D07D10027102514F8010BC9
:1007000002E0082500E00A250026B0460EE005FBC1
:10071000080005FB06F1012701EB10461FFA80F8DF
:10072000B6F5803F00D3B94614F8010B294600F016
:10073000EFF80028EBDABBF1000F05D00FB1641E13
:1007400000E05446CBF80040B9F1000F06D001F0AC
:1007500007F802210160C81EBDE8F09F48EA064084
:10076000FAE700000FB4002300B589B00CA900918E
:100770000B996FF00042CB601E4B06931E4B079304
:100780000423CDE901321D4A089202466B4600203F
:1007900000F060F909B05DF814FB70B586B006464C
:1007A0004FF0FF300091CDE90101002015460C46C5
:1007B00004903246694604A8FFF7D4FF0246049825
:1007C000211825B108B1084600E0204628600498A9
:1007D00000280DD0002A02DD0098884208D0081BAE
:1007E0000094CDE901043246694604A8FFF7BAFF38
:1007F00006B070BD8D0C0008AB0C00082D01000880
:1008000010B5141E73F1000408DA401C41F1000118
:1008100092185B411A4301D120F0010010BD2DE96F
:10082000F04D92469B4611B1B1FA81F202E0B0FA66
:1008300080F220329046FFF714FF04460F4640EA4C
:100840000A0041EA0B0153465A46084313D01146A9
:1008500053EA010019D0C8F140025046FFF710FFDB
:1008600005460E46504659464246FFF7FAFE0843F3
:1008700005D0012004E020463946BDE8F08D002077
:10088000054346EAE0762C4337430A986305E40AB9
:10089000A0EB08000022FD0A44EA47540A3002D5C2
:1008A00000200146E9E7010510196941DDE9084525
:1008B00000196941BDE8F04DA2E7C1F30A52C1F346
:1008C000130140F2FF3341F480119A4202DA002012
:1008D0000146704740F233439A42A2F2334202DCAF
:1008E0005242FFF7CDBEFFF7BCBE0000064C074DDD
:1008F00006E0E06840F0010394E8070098471034F0
:10090000AC42F6D3FFF7F6FBBC420008DC4200081D
:100910003A2800D2303820F02002412A01D3A2F137
:100920003700884201D34FF0FF3070472DE9FF4F69
:10093000087883B09946FF2805D0491C2D2804D09B
:100940000024002008E000200BE00124F9E700EB80
:10095000800003EB4000491C0B78FF2BF7D104B15A
:10096000404200230293147819461D462D2C01D0D5
:100970002B2C04D1521C2D2C13D000240294AA46F7
:100980001478FF2C0FD00A25A3FB057801FB058105
:100990004FF0000C03FB0C11521CE3194AEB010150
:1009A000EEE70124EAE7814453EA010002D019F599
:1009B000C87F06DA03980021C0E9001107B0BDE83E
:1009C000F08F0025AE4E2F46DFF8B882184600F0B3
:1009D0007DF9CDE90001B9F1000002DAC9F10004A6
:1009E00000E004460023A74A1AEB030B42EB045A2B
:1009F00012E0E00707D02A46334638464146FFF763
:100A0000BFFC074688462A46334610461946FFF77C
:100A1000B7FC05460E466410002CEAD1DDE9000162
:100A2000B9F1000F5A46534606DAFFF71BFD3A4666
:100A30004346FFF717FD05E0FFF7A2FC3A464346A1
:100A4000FFF79EFC029A0AB181F00041039AC2E9C5
:100A50000001B3E72DE9FF4F1F468DB0D7E90146EE
:100A60004FF0FF382E2045464FF000090B90B96932
:100A70006D1C0E988847396A824688470028F6D14F
:100A8000BAF1FF3F0AD024F4D064002E11DDBAF190
:100A90002B0F08D0BAF12D0F0BD102E0404611B058
:100AA0008DE744F48064B9696D1C0E9888478246CE
:100AB000761E6946600501D52D2000E02B208DF8BB
:100AC000000001F1010B0DF1200809E0B9696D1C6E
:100AD0000E98884782460F9844F40074761E05608D
:100AE000002E02DDBAF1300FF0D00B998A453ED1CD
:100AF00044F0800406E00F99681CA9F1010944F450
:100B000000740860B9696D1C761E0E98884782468D
:100B10003028F0D02BE00B998A4505D1200603D46C
:100B200044F08004761E18E0504600F0EFFE08B353
:100B30000DF11301761E44F400748B4508D2AAF11E
:100B400030000BF8010B200607D5A9F1010003E0E6
:100B5000200602D409F101008146A00502D50F99B3
:100B6000681C0860B9696D1C0E9888478246002E83
:100B7000D1DC53E0002E51DDBAF1650F02D0BAF19D
:100B8000450F4BD1A00549D5B9696D1C24F44074BB
:100B9000761E0E9888478246002E0CDD2B2804D046
:100BA000BAF12D0F07D144F48074B9696D1C0E9809
:100BB00088478246761EE00501D52D2100E02B21D5
:100BC00008F8011BCDF82C8021E00DF12901761EDB
:100BD00044F4007488450CD2AAF1300010F0FF00F4
:100BE00088F8000002D10B99884509D908F101085D
:100BF00006E0E00501D5244801E042F20F7081468D
:100C0000B9696D1C0E98884782460F980560002EC2
:100C100004DD504600F07AFE0028D6D1F9690E981E
:100C20008847FF208BF8000088F80000002006901D
:100C300007904B466A4608A906A8FFF777FEA0056D
:100C400002D46FF001002AE714F0240F0AD0E00765
:100C500014D1DDE906123868031D3B600068C0E965
:100C600000120BE0DDE9060100F03CF80146E00768
:100C700004D13868021D3A600068016028460EE71A
:100C8000000014400000F03FF1D8FFFF426842B17D
:100C9000016811F8013B23B1521EC0E90012184649
:100CA00070470121C160881E704742685AB1C3680D
:100CB000016843B983688B4205D0491E521CC0E9C4
:100CC0000012002070474FF0FF3070470EB540F221
:100CD000334202920022CDE900221346FFF79FFD26
:100CE00003B000BD01F0004330B421F0004150EAF0
:100CF000010206D00A0DA2F56072C1F31301002AA9
:100D000002DC30BC00207047440F44EAC104C1003B
:100D1000E01830BC00EBC250AFF300800029A8BF40
:100D20007047401C490008BF20F00100704710B414
:100D3000B0FA80FC00FA0CF050EA010404BF10BCC9
:100D4000704749B1CCF1200421FA04F411FA0CF1F6
:100D500018BF012121430843A3EB0C01CB1D4FEA2F
:100D600000614FEA102042BF002010BC704700EB2A
:100D7000C35010440029A4BF10BC7047401C490058
:100D800008BF20F0010010BC704700BFFEE710B59F
:100D900000F0EEF910BD000000F0805111B10349E0
:100DA000086001E002494860704700000404024006
:100DB0000000024021B1026842F00102026004E03A
:100DC00002684FF6FE731A40026070470146002029
:100DD000002201F0805313B1054B1A6801E0054B66
:100DE0001A6802EA01030BB1012000E000207047FD
:100DF00000040240000002401AB103680B43036084
:100E000002E003688B430360704710B5002202685C
:100E100047F6F0739A430C6A8B6823430C692343AB
:100E20004C6923438C692343CC6923434C6A234395
:100E30008C6A23431A430260CB6843600B6883606B
:100E40004B68C36010BD70472DE9FF4F81B08046ED
:100E50008946164616B905B0BDE8F08F0C2E00DDA8
:100E6000F9E7D8F800A0D8F80440D8F80850D8F826
:100E70000C70D8F810B0D8F814000090049800282E
:100E800044D0B819182801D2374480E0B819A0F12D
:100E90001807012C09D0032C07D0052C05D0072CEE
:100EA00003D0082C01D00A2C06D11F2D01D26D1CB5
:100EB0006DE00125641C6AE0042C05D0062C03D0EB
:100EC000092C01D00B2C06D11E2D01D26D1C5EE029
:100ED0000125641C5BE0022C0DD11D2D06D01C2DBC
:100EE00007D10AF0FF0000F0A1F910B90125641C38
:100EF0004DE06D1C4BE00C2C49D11F2D01D26D1C17
:100F000045E0012501240AF1010A40E0B74201D37E
:100F1000BF1B3CE007F11800871B022C09D0042CF2
:100F200007D0062C05D0082C03D0092C01D00B2C9F
:100F300006D1012D01D96D1E29E01F25641E26E072
:100F4000052C05D0072C03D00A2C01D00C2C06D17F
:100F5000012D01D96D1E1AE01E25641E17E0032C19
:100F60000BD1012D07D10AF0FF0000F05FF910B995
:100F70001C25641E0BE06D1E09E0012C07D1012D1C
:100F800001D96D1E03E01F250C24AAF1010AC9F83E
:100F900000A0C9F80440C9F80850C9F80C70C9F895
:100FA00010B00098C9F8140000BF54E72DE9F041D3
:100FB000024600250026002000230024002791F887
:100FC00003C00CF00F0591F803C00CF0100CBCF13D
:100FD000000F03D091F802C04CEA050591F800C05B
:100FE000BCF1000F31D0146800202BE04FF0010C51
:100FF0000CFA00F3B1F800C00CEA03069E4220D1BF
:1010000083004FF00F0C0CFA03F7BC4305FA03FC06
:101010004CEA040491F803C0BCF1280F06D14FF04C
:10102000010C0CFA00FCC2F814C00AE091F803C0ED
:10103000BCF1480F05D14FF0010C0CFA00FCC2F8CE
:1010400010C0401C0828D1D31460B1F800C0BCF116
:10105000FF0F34DD546800202EE000F1080C4FF043
:10106000010808FA0CF3B1F800C00CEA03069E422E
:1010700021D183004FF00F0C0CFA03F7BC4305FAA3
:1010800003FC4CEA040491F803C0BCF1280F05D11D
:1010900000F1080C08FA0CF8C2F8148091F803C0AB
:1010A000BCF1480F07D100F1080C4FF0010808FA15
:1010B0000CF8C2F81080401C0828CED35460BDE85C
:1010C000F08110B500F072F800F002F810BD0000D9
:1010D00000B58BB00121084600F008F916480090D1
:1010E00016480190002002904FF4007003900020F9
:1010F0000490802005900020069007902020089002
:10110000C001099000200A9069460D48FFF77DFE56
:1011100000F018F8012206210948FFF76DFE0121B1
:101120000748FFF747FE012240210348001F00F057
:1011300069FA0BB000BD0000044400406C000020C0
:101140006C00024008B54FF4C06000F0C3F81020F6
:101150008DF8000001208DF8010000208DF80200BC
:1011600001208DF80300684600F07CF808BD0000FF
:1011700010B54FF48000FFF729FE30B10120094976
:1011800008708005FFF708FE0AE04FF40010FFF733
:101190001DFE28B10120044908704005FFF7FCFD41
:1011A00010BD0000150000201400002000B585B01F
:1011B0000121042000F0BAF80121480400F0A6F84B
:1011C0000420ADF8100018208DF8130003208DF8CE
:1011D000120004A91248FFF7E9FE0820ADF810003C
:1011E00004208DF8130004A90D48FFF7DFFE4FF42B
:1011F000165000900020ADF80400ADF80600ADF8E0
:101200000800ADF80C000C20ADF80A00694605484E
:1012100000F00EFA0121034800F0A8F905B000BD66
:10122000000801400044004000BFFEE7024602F50E
:10123000FA6101F0030080B94FF4C87091FBF0F33C
:1012400000FB131028B1642091FBF0F300FB131096
:1012500008B1012070470020FCE70020FAE700BF3A
:10126000FEE7704770B5002100230F22C47804B355
:10127000154C246804F4E064C4F5E064210AC1F16B
:101280000403CA40447804FA03F1847814402143EB
:1012900009010E4C0678A155047804F01F050124BD
:1012A000AC4005786D11AD0005F1E025C5F80041B1
:1012B00009E0047804F01F050124AC40044D0678D1
:1012C000761145F8264070BD0CED00E000E400E02A
:1012D00080E100E002490143024A116070470000CA
:1012E0000000FA050CED00E07047000029B1064A45
:1012F00052690243044B5A6104E0034A5269824333
:10130000014B5A61704700000010024029B1064AA3
:10131000D2690243044BDA6104E0034AD269824392
:10132000014BDA61704700000010024029B1064A03
:1013300092690243044B9A6104E0034A9269824332
:10134000014B9A61704700000010024030B5002147
:101350000022002400232D4D6D6805F00C0121B101
:10136000042905D0082923D105E0294D056022E094
:10137000274D05601FE0254D6D6805F47012234D63
:101380006D6805F48034022505EB92421CB9214DAD
:10139000554305600BE01D4D6D6805F400351DB12A
:1013A0001C4D5543056002E0194D5543056002E0B0
:1013B000174D056000BF00BF144D6D6805F0F001CA
:1013C0000909154D6B5C0568DD4045600F4D6D6882
:1013D00005F4E061090A104D6B5C4568DD408560ED
:1013E0000A4D6D6805F46051C90A0B4D6B5C456888
:1013F000DD40C560054D6D6805F44041890B074D22
:101400006B5CC568B5FBF3F5056130BD00100240AB
:1014100000127A0000093D000000002010000020AA
:10142000704710B500F002F810BD00000CB50020A8
:10143000019000903348006840F4803031490860E2
:1014400000BF3048006800F4003000900198401C54
:101450000190009818B90198B0F5A06FF1D1294812
:10146000006800F4003010B10120009001E000207D
:1014700000900098012843D12348006840F01000F4
:10148000214908600846006820F00300086008460B
:10149000006840F0020008601A4840681949486036
:1014A0000846406848600846406840F480604860EC
:1014B0000846406820F47C1048600846406840F4C4
:1014C000E81048600846006840F08070086000BF7F
:1014D0000C48006800F000700028F9D00948406806
:1014E00020F00300074948600846406840F00200C9
:1014F000486000BF0348406800F00C000828F9D19C
:101500000CBD0000001002400020024010B513483E
:10151000006840F001001149086008464068104921
:1015200008400E494860084600680E4908400B49CB
:1015300008600846006820F480200860084640687B
:1015400020F4FE0048604FF41F008860FFF769FF39
:101550004FF000600449086010BD00000010024018
:101560000000FFF8FFFFF6FE08ED00E021B18289E0
:1015700042F40052828104E082894DF6FF731A40E2
:101580008281704700B585B001210420FFF7CEFEAF
:1015900001218803FFF7CAFE4FF40070ADF8100078
:1015A00018208DF8130003208DF8120004A91348A9
:1015B000FFF7FCFC4FF48060ADF8100004208DF8BC
:1015C000130004A90D48FFF7F1FC4FF4E13000903F
:1015D0000020ADF80400ADF80600ADF80800ADF845
:1015E0000C000C20ADF80A006946054800F020F810
:1015F00001210348FFF7BAFF05B000BD0008014014
:10160000003801401AB1838A0B43838202E0838A47
:101610008B438382704702460020B1F5007F00D1E2
:1016200000BF13880B400BB1012000E00020704781
:101630002DE9F04786B005460E460024A24600BFBD
:10164000A1460027B08900B100BF2F462C8A4CF676
:10165000FF700440F08804432C82AC894EF6F310EE
:101660000440B08831890843718908430443AC8140
:10167000AC8A4FF6FF400440B0890443AC8201A815
:10168000FFF764FE1F48874202D1DDF810A001E099
:10169000DDF80CA0A88900F4004040B10AEBCA00B4
:1016A00000EB0A1031684900B0FBF1F807E00AEBE3
:1016B000CA0000EB0A1031688900B0FBF1F8642021
:1016C000B8FBF0F004012009642101FB1089A8890E
:1016D00000F4004040B1322000EBC900B0FBF1F053
:1016E00000F00700044308E0322000EB09106421F9
:1016F000B0FBF1F000F00F0004432C8106B0BDE810
:10170000F087000000380140C1F308028280704772
:1017100000BFFEE70FB4054B10B503A9044A0298B9
:1017200000F05EF910BC5DF814FB000061210008B8
:101730005C0000207CB5044600201D4616460029AA
:101740000BD0491ECDE90041044B6A46294630467C
:1017500000F046F9009A002111707CBD0F210008AD
:10176000004870476800002002E008C8121F08C146
:10177000002AFAD170477047002001E001C1121F12
:10178000002AFBD1704700002DE9FF5F82B00021E5
:10179000DDE90430020DDDF840B0034318D044F613
:1017A0001050A2F2FF3242431514119801281FD0A5
:1017B000A5EB0B00401C5FEA000A4FF000064E4FFD
:1017C000DFF83891B046504615D5CAF1000413E051
:1017D000119801244AA3012801D16FEA0B01029854
:1017E000119AC0E90031C0E9024206B0BDE8F09F9D
:1017F000CBF10000DFE704460021404A491842EBE4
:101800000450CDE9001012E0E00707D032463B4615
:1018100040464946FEF7B4FD8046894632463B467F
:1018200010461946FEF7ACFD06460F466410002C24
:10183000EAD1DDE90401DDE90023BAF1000F06DA9F
:10184000FEF79EFD42464B46FEF79AFD05E0FEF789
:1018500009FE42464B46FEF705FE04460E460022B0
:10186000284BFEF79FFE03D84FF0FF30014607E0FC
:101870000022254B20463146FEF7DBFCFFF71DF822
:10188000102409E0002C0ADB0A220023FEF7B8FE30
:10189000039B30321A55641E50EA0102F2D1641CD7
:1018A000039AC4F111031444119A012A03D00122AE
:1018B00008430DD10AE0084304D000204FF0110B7B
:1018C000119072E7A3EB0B056D1E0DE05B4504DD87
:1018D0004FF0000205F1010504E003DA4FF00002C9
:1018E000A5F10105002AECD002981199C0E9023156
:1018F000C0E9004579E70000000014400000F03F17
:10190000300000000000F0430000E03F30380A28BB
:1019100001D201207047002070470000FEB5064646
:101920000D4614460027062D06D0082D16D0092D89
:1019300015D00A2D28D113E004F11400011F0B1F4C
:1019400017A2CDE900102946304602F09BFA032881
:1019500001D1012000E0002007461AE000BF00BFCF
:1019600004F11800011F0A1F131FCDE90021029086
:101970000EA22946304602F085FA042801D1012042
:1019800000E00020074604E00CA001F0D6F8002794
:1019900000BF00BF0FB10020FEBD4FF0FF30FBE7DE
:1019A0002532642532642532640000002532642526
:1019B00032642532642E2564000000005061727389
:1019C00065206F662074696D65206572726F722084
:1019D00028666F726D6174206572726F72292100C2
:1019E0002DE9FF4F95B09B468946064600250FE23C
:1019F000252877D100242746F84A0121059400E0E4
:101A0000044316F8013F203B01FA03F01042F7D1DE
:101A100030782A2811D06FF02F033078A0F13002EF
:101A2000092A16D8059A44F0020402EB820203EB5D
:101A300042021044761C0590EFE759F8042B0592FA
:101A4000002A03DA504244F40054059044F00204A2
:101A5000761C30782E2816D116F8010F44F00404B5
:101A60002A280DD06FF02F023078A0F13003092B17
:101A700009D807EB870302EB4303C718761CF3E78B
:101A800059F8047B761C30786C280FD006DC4C2883
:101A900017D068280DD06A2814D104E0742810D01B
:101AA0007A280FD10DE044F400140AE044F48014C5
:101AB00001E044F440147278824202D104F58014AB
:101AC000761C761C307866280BD013DC582877D02B
:101AD00009DC002875D04528F6D04628F4D04728E0
:101AE0001AD19DE118E0632835D0642879D06528A3
:101AF00012D195E1702873D008DC6728F1D06928ED
:101B00006FD06E280DD06F2806D1B5E073282CD089
:101B1000752875D0782874D05A46179990476D1C4F
:101B200075E1C4F30250022809D003280DD0D9F87A
:101B3000001004280DD00D6009F1040967E1D9F8FF
:101B40000010EA17C1E90052F6E7D9F800100D803D
:101B5000F2E70D70F0E719F8041B8DF80010002073
:101B60008DF80100EA46012003E059F804AB4FF07C
:101B7000FF3061074FF0000102D40DE008F10101D0
:101B80008846B9420FDA8045F8DB1AF808100029B8
:101B9000F4D108E008F1010188468142FADB1AF825
:101BA00008100029F6D105985B46A0EB08072146EE
:101BB0003846179A00F094FA284400EB080507E02D
:101BC0004DE029E10DE01AF8010B5A4617999047AC
:101BD000B8F10108F7D25B4621463846179A13E15F
:101BE00042E00A220092C4F302524FF0000A022A95
:101BF00008D059F804CB032A4FEAEC710AD00DE063
:101C000029E02AE009F1070121F00702F2E802C108
:101C1000914609E00FFA8CFC4FEAEC71042A03D1DB
:101C20004FFA8CFC4FEAEC71002907DA0A460021D2
:101C3000DCF1000C61EB02012D2202E0220504D54B
:101C40002B228DF80420012203E0E20701D020229C
:101C5000F7E7904659E00A2102E010220DE010213A
:101C60004FF0000A00910BE010224FF0000A44F000
:101C700004040827009203E008224FF0000A0092B3
:101C8000C4F30252022A05D059F804CB0021032ADA
:101C900008D009E009F1070121F00702F2E802C1CA
:101CA000914605E01FFA8CFC042A01D10CF0FF0CD0
:101CB0004FF00008220728D5702806D0009B83F03B
:101CC000100353EA0A0305D00EE040228DF80420E9
:101CD000012208E05CEA010206D030228DF80420DF
:101CE0008DF8050002229046009B83F0080353EA1A
:101CF0000A030AD15CEA010201D1620705D530224C
:101D00008DF804204FF001087F1E582804D034A01D
:101D100003900EA802900DE036A0F9E75346604606
:101D2000009AFEF76DFC84460398825C0298401E80
:101D3000029002705CEA0100F0D1029806A9081A2C
:101D400000F1200A600702D524F4803400E0012766
:101D5000574502DDA7EB0A0000E0002000EB0A0176
:101D6000009005984144401A0590E00306D45B4674
:101D70002146179A059800F0B3F90544002706E0BC
:101D800001A85A46C05D179990476D1C7F1C4745B6
:101D9000F6DBE0030CD55B462146179A059800F068
:101DA0009FF9054404E030205A46179990476D1C6E
:101DB0000099481E00900029F5DC08E0029802997D
:101DC0005A460078491C0291179990476D1CBAF148
:101DD0000001AAF1010AF1DC65E100000928010017
:101DE0003031323334353637383961626364656691
:101DF0000000000030313233343536373839414253
:101E0000434445460000000000F058F90544761CA4
:101E1000307800287FF4ECAD19B02846BDE8F08F8B
:101E2000620700D4062709F1070222F0070CFCE83C
:101E30000223E14603F000485FEA080C02D00FF2EB
:101E4000702C0DE05FEA045C02D50FF2682C07E00D
:101E50005FEAC47C02D00FF2602C01E0AFF2700C9C
:101E60004FF0FF3823F00043CDF850C065280CD068
:101E700006DC452809D046281DD047283DD13DE045
:101E8000662818D067287ED138E00021112F01DBA9
:101E9000112000E0781CCDE9000106A90EA8FFF78B
:101EA00073FCDDE90F010E9A03910021009207F106
:101EB000010A04914DE04FF000400097CDE9011078
:101EC00006A90EA8FFF760FCDDE90F0203920E9B46
:101ED00011990022DDF80CA00093049211B9791C2D
:101EE00000EB010AB7EB0A0004D4C0F1FF3007F1A0
:101EF000010A0490AAEB0700019044E0012F00DAE8
:101F000001270021112F01DD112000E03846CDE925
:101F1000000106A90EA8FFF737FCDDE90F010E9AB4
:101F20000391002104910092BA4621070CD4039931
:101F3000514500DA8A46BAF1010F05DD009AAAF18F
:101F40000101515C302908D0B84202DA10F1040FC7
:101F500006DA0121CDE9011015E0AAF10101E9E756
:101F6000002805DC049901440491AAEB000102E079
:101F7000411C514500DD8A460499401A401C0190DD
:101F80004FF000400290200704D40198504501DB37
:101F9000CDF8048000208DF84F0002980DF14F0716
:101FA000B0F1004F25D02B200E9002984FF0020880
:101FB00000280CDA404202902D200E9007E00A2102
:101FC0000298FEF707FB3031029007F8011DB8F1C7
:101FD0000001A8F10108F2DC02980028EFD1791E77
:101FE0000E980870307800F0200040F0450007F8A7
:101FF000020D12A8C01B00F107081498007800B168
:10200000012000EB0A01019801EBE07105984144C1
:10201000401A401E0590E00306D45B462146179AFD
:10202000059800F05DF805441498007818B15A46F8
:10203000179990476D1CE00324D55B462146179AFB
:10204000059800F04DF805441CE00498002807DBD3
:10205000DDE90301884203DD0098405C179901E047
:10206000179930205A469047049805F10105401C05
:1020700004900198401E019004D12E205A461799D1
:1020800090476D1CBAF10001AAF1010ADDDC05E000
:1020900017F8010B5A46179990476D1CB8F10001CB
:1020A000A8F10108F4DC5B462146179A0598ABE6D7
:1020B0002D0000002B000000200000002DE9F04161
:1020C000044600251E461746880404D405E0394618
:1020D0002020B0476D1C641EF9D52846BDE8F0816C
:1020E0002DE9F041044600251E469046C80301D55F
:1020F000302700E02027880404D505E04146384613
:10210000B0476D1C641EF9D52846BDE8F0814A68C9
:10211000002A06D00A68531C0B6010704868401EE5
:102120004860704770B505460E4608A0FFF7F2FA02
:10213000002405E0295D08A0FFF7ECFA601C84B2DA
:10214000B442F7DB05A0FFF7E5FA70BD0D0A457252
:10215000726F723A20000000256300000A00000040
:1021600070B504460D46E1B20548FFF7CDFA00BF51
:1021700080210348FFF74FFA0028F9D0204670BDB0
:102180000038014010B5002821D0114B0022001F5B
:10219000196803E0814203D80A4649680029F9D149
:1021A00052B11368841A9C4204D10068184410602C
:1021B000104602E0506000E0186039B102680B1A66
:1021C000934203D10B681A4402604968416010BD14
:1021D0006000002070B505460E4608A0FFF79AFA89
:1021E000002405E0295D08A0FFF794FA601C84B282
:1021F000B442F7DB05A0FFF78DFA70BD0D0A496EFA
:10220000666F3A2000000000256300000A0000000D
:10221000ADF5D46D4FF0000A01F030FE4549016084
:1022200001F02CFE4449416001F028FE43498160E1
:1022300010A801F04CFF0BA801F0BCFBFFF7A2F9BE
:10224000FEF73FFF75E03E48007860B110AB4FF4F9
:1022500080723C490BA800F0AFFD0020384908709F
:102260004FF0010A0EE03848007858B110AB4FF437
:10227000807236490BA800F09FFD0020324908709B
:102280004FF0010ABAF1000F53D00123082204A92C
:1022900011A8FEF7D9FDDDE908210798CDE9012154
:1022A000009004A80DC800F26C7129A0FFF732FA63
:1022B000DDE92021104600F0C7FC06460F46DDE9A7
:1022C0002221104600F0C0FC04460D4632463B4633
:1022D00027A0CDE90045FFF71DFADDE9248342463A
:1022E00028A0FFF717FADDE9288342462AA0FFF766
:1022F00011FADDE92A8342462CA0FFF70BFA2FA042
:10230000DDE92F12FFF706FA36A0EB9AEA99FFF7FC
:1023100001FADDE91E01CDE90201DDE91C01CDE98B
:102320000001DDE91A83424639A0FFF7F3F94FF0C7
:10233000000A88E70941000825210008D521000886
:10234000150000206C000020140000206C0100200B
:102350000D0ACAB1BCE425642D253032642D253028
:1023600032642C25643A25643A25640D0A00000085
:102370000D0ACEB3B6C8A3BA25662CBEADB6C82525
:10238000660D0A000D0ABAA3B0CEB8DFB6C8A3BA6C
:10239000256620C3D72000000D0ACBD9B6C8A3BA42
:1023A0002566206B6D2F6820000000000D0ABABD65
:1023B000CFF2A3BA256620B6C80000000D0AD5FDED
:1023C000D4DACAB9D3C3B5C4475053CEC0D0C7A31B
:1023D000BA25642CBFC9BCFB475053CEC0D0C7A39D
:1023E000BA2564000D0AD5FDD4DACAB9D3C3B5C481
:1023F000B1B1B6B7CEC0D0C7A3BA25642CBFC9BC93
:10240000FBB1B1B6B7CEC0D0C7A3BA2564000000F7
:102410000D0A50444F50A3BA25662C48444F50A390
:10242000BA2566A3AC56444F50A3BA2566000000F7
:10243000F0B50B30154D20F007010024144A0FE0D1
:1024400003688B420BD38B4205D95E1A4318476849
:10245000C3E9006700E04368136002C004E0021DA6
:1024600010680028ECD12046002802D1286808B165
:102470000020F0BD064A07481060074A121A22F0F1
:102480000702C0E9002401202860D7E7640000208B
:10249000600000207403002070130020F0B50024B9
:1024A000383010F8385C4D62D0E91A56C1E90A5646
:1024B000D0E91C56C1E90C56D0E91E653838C1E98F
:1024C0000E65002222E000231AE000F1080555F80D
:1024D0002250A5B100F1080555F8226003EB8307EF
:1024E00001F55C7555F82750AE4208D1012603EB83
:1024F000830701F55C7505EB87056E60641C5B1C4A
:102500004FF45B756D589D42DFDC521C252ADADBE7
:10251000C1F868430D6845F080050D60F0BDF0B569
:10252000D0E90065B54204DC25264568B6EB850F89
:1025300000DAF0BD4568012D01DA012545604FF450
:102540005B7586686E5045686D1EAC00251D8668FB
:10255000AE4202DA85682D1B00E004252C460022DD
:102560003AE045686D1E02EB850302EB820600F13E
:102570000C0555F8266003EB830701F55C7545F8FB
:10258000276002EB820600F10C0505EB860503EBE4
:102590008307AE6801F55C7505EB8705AE6002EB5D
:1025A000820600F10C0505EB860503EB8307EE6858
:1025B00001F55C7505EB8705EE6002EB820600F124
:1025C0000C0505EB860503EB83072E6901F55C75A9
:1025D00005EB87052E61521CA242C2DB0D6845F057
:1025E00040050D6000BFA4E7C3680B6103694B6140
:1025F00043698B618369CB61C26B0A62D0E91223A4
:10260000C1E90C23D0E91423C1E9142390F8282050
:102610004E2A02D1D0E9082303E0D0E9082383F051
:102620000043C1E9102390F83820452A02D1D0E9AF
:102630000C2303E0D0E90C2383F00043C1E912230B
:10264000026CCA670A6842F480520A60704790F8C8
:102650003820412A09D10A6A0AB902220A624A6A62
:10266000012A0AD102224A6207E090F83820562A4D
:1026700003D100220A6201224A62027A4E2A02D162
:10268000D0E9002303E0D0E9002383F00043C1E94F
:102690001023027E452A02D1D0E9042303E0D0E9C9
:1026A000042383F00043C1E91223836A0B61C36AE8
:1026B0004B61036B8B61436BCB6190F8392081F8E0
:1026C00078200A6842F400720A6070472DE9F041F0
:1026D00005460C46287F412809D1206A08B9022006
:1026E0002062606A012809D10220606206E0287F2A
:1026F000562803D100202062012060621C22294656
:10270000201DFDF71CFD95F828004E2802D1D5E9C3
:10271000080103E0D5E9080181F00041C4E9100196
:1027200095F83800452802D1D5E90C0103E0D5E938
:102730000C0181F00041C4E91201D5E91001C4E99E
:1027400016010B4A0B4BD5E910613046FDF718FE18
:10275000C4E91801D5E91201C4E91A0195F8590034
:1027600084F87800206840F400602060BDE8F081C3
:102770006F1283C0CAA1FD3FD0E90023C1E91A232B
:10278000D0E90423C1E91C23D0E90823C1E91623B9
:10279000D0E90C23C1E9182390F8392081F878207A
:1027A0000A6842F480620A60704770B505460C46BC
:1027B0001C222946201DFDF7C2FC206840F48070D1
:1027C000206070BDC3680B6103694B6143698B6115
:1027D0008369CB61C26B0A62D0E91223C1E90C2381
:1027E000D0E91423C1E9142390F828204E2A02D1FD
:1027F000D0E9082303E0D0E9082383F00043C1E9CE
:10280000102390F83820452A02D1D0E90C2303E0A8
:10281000D0E90C2383F00043C1E912230A6842F097
:1028200001020A607047F0B50024383050F8345C7B
:102830004D62D0E91A56C1E90A56D0E91C56C1E9E1
:102840000C56D0E91E653838C1E90E65002221E03A
:1028500000231AE000F1080555F82250A5B100F157
:10286000080555F8226003EB830701F1840555F84C
:102870002750AE4208D1012603EB830701F18405FE
:1028800005EB87056E60641C5B1C80256D589D42BE
:10289000E0DC521C252ADBDBCC670D6845F0020525
:1028A0000D60F0BDF0B5D0E90065B54204DC252629
:1028B0004568B6EB850F00DAF0BD4568012D01DAF9
:1028C00001254560802586686E5045686D1EAC0008
:1028D000251D8668AE4202DA85682D1B00E00425BE
:1028E0002C4600223AE045686D1E02EB850302EBA0
:1028F000820600F10C0555F8266003EB830701F111
:10290000840545F8276002EB820600F10C0505EB13
:10291000860503EB8307AE6801F1840505EB8705A7
:10292000AE6002EB820600F10C0505EB860503EBB9
:102930008307EE6801F1840505EB8705EE6002EB85
:10294000820600F10C0505EB860503EB83072E6973
:1029500001F1840505EB87052E61521CA242C2DB02
:102960000D6845F004050D6000BFA5E72DE9F041B5
:1029700005460C46287F412809D1206A08B9022063
:102980002062606A012809D10220606206E0287F87
:10299000562803D100202062012060621C222946B3
:1029A000201DFDF7CCFB95F828004E2802D1D5E973
:1029B000080103E0D5E9080181F00041C4E91001F4
:1029C00095F83800452802D1D5E90C0103E0D5E996
:1029D0000C0181F00041C4E91201094A094BD5E913
:1029E00010613046FDF7CCFCC4E91801D5E91201AD
:1029F000C4E91A01206840F008002060BDE8F081B9
:102A00006F1283C0CAA1FD3F70B505460C46A86889
:102A1000C4F854061248C4F85806D4F8540620B92D
:102A20000F4910A000F0EDF819E0D4F85406012881
:102A300004D10B490FA000F0E4F810E0D4F85406DC
:102A4000022804D1064910A000F0DBF807E0D4F812
:102A50005406072803D1024910A000F0D2F870BD37
:102A60006C0200204750545854206572726F723ABD
:102A7000202573004750545854207761726E696E58
:102A8000673A2025730000004750545854206E6F59
:102A9000746963653A20257300000000475054585C
:102AA00054207573657220696E666F3A2025730035
:102AB000D0E90023C1E91A23D0E90423C1E91C238A
:102AC000D0E90C23C1E918230A6842F010020A6019
:102AD0007047F0B5C1B007460C4600210D460E46C2
:102AE000FF2C0DDC224639466846FDF728FB002006
:102AF0000DF8040040A9684601F0F8FA05460E46B4
:102B00002846314641B0F0BDF0B5C1B005460C468F
:102B100016460027FF2C0DDC224629466846FDF7A5
:102B20000EFB00200DF80400324640A96846FDF770
:102B300048FB0746384641B0F0BD0FB430B5ADF2A2
:102B4000044D01F09BF94568ADB10DF21440CDF88C
:102B5000000440F2FF316846DDF80034DDF810244F
:102B6000FEF7E8FD04460020CDF80004002C02DD4D
:102B700021466846A8470DF2044D30BC5DF814FBB1
:102B80002DE9F04704460F46154604EB07080026DA
:102B9000B146701E286029E02078242802D10EB1A9
:102BA000002425E020782A281AD1601D404516D837
:102BB000E0780D2813D120790A2810D110220221A3
:102BC000601CFFF7A1FF2860601DA8EB00003E1A03
:102BD0002868484503D04FF0FF302860002407E004
:102BE00016B1207880EA0909641C761C4445D3D3C9
:102BF00000BF2868002801DA04B100263046BDE88D
:102C0000F0870FB430B5ADF2044D01F037F98568A7
:102C1000ADB10DF21440CDF8000440F2FF3168462A
:102C2000DDF80034DDF81024FEF784FD04460020B2
:102C3000CDF80004002C02DD21466846A8470DF2BD
:102C4000044D30BC5DF814FB2DE9FC5F04460D46D5
:102C50000022144B20462946FDF704FC8046FDF770
:102C600081FC8246FDF76DFC06460F4600220D4BA7
:102C700030463946FDF784FB804622462B46FDF759
:102C80007CFB82460022084BFDF7ECFB32463B46BC
:102C9000CDE90001FDF7CDFA04460D462046294650
:102CA000BDE8FC9F0000594000004E4070B505464D
:102CB0000C46052C01DA002070BD3E480522016853
:102CC0002846FDF771FA08B90120F5E739480522D1
:102CD00041682846FDF768FA08B90220ECE7354854
:102CE000052281682846FDF75FFA08B90420E3E76A
:102CF00030480522C1682846FDF756FA08B9082071
:102D0000DAE72C48052201692846FDF74DFA08B993
:102D10001020D1E72748052241692846FDF744FAEB
:102D200008B92020C8E72348052281692846FDF715
:102D30003BFA08B94020BFE71E480522C169284672
:102D4000FDF732FA08B98020B6E71A480522016A71
:102D50002846FDF729FA10B94FF48070ACE7154802
:102D60000522416A2846FDF71FFA10B94FF400709A
:102D7000A2E710480522816A2846FDF715FA10B926
:102D80004FF4806098E70B480522C16A2846FDF79A
:102D90000BFA10B94FF400608EE706480522016B6C
:102DA0002846FDF701FA10B94FF4805084E700205F
:102DB00082E70000280000202DE9F84307468846F6
:102DC00091461D460026002000904A46414638465E
:102DD00000F02EFE6BE0761C402C55D00EDC082C4B
:102DE0002FD006DC012C1DD0022C20D0042C5AD16F
:102DF00022E0102C2AD0202C55D14FE0B4F5806F62
:102E000033D008DC802C44D0B4F5807F32D0B4F5C8
:102E1000007F48D133E0B4F5006F21D0B4F5805F76
:102E200041D118E029460098FFF7CCFC3BE0294649
:102E30000098FFF7F8FC36E029460098FFF732FDCE
:102E400031E029460098FFF791FD2CE029460098D3
:102E5000FFF72EFE27E029460098FFF7C5FB22E08A
:102E600029460098FFF732FC1DE029460098FFF73D
:102E700083FC18E029460098FFF797FC13E02946E9
:102E80000098FFF7E4FB0EE029460098FFF747FBA8
:102E900009E029460098FFF701FB04E02946009865
:102EA000FFF7B2FD00BF00BF0098FFF76BF969465E
:102EB000384600F0A7FD041E8DD13046BDE8F883EA
:102EC00070B590B005460E461446B8212046FDF771
:102ED0004FF93146284601F0EEF804F1B00104F153
:102EE000A80204F1A00304F13400CDE90D320F91E2
:102EF0000C90011F0A1F131F1038CDE909320B91E6
:102F00000890011F0A1F131F1038CDE905320791E1
:102F10000490011F0838021F231DCDE90032CDE9BE
:102F20000201234607A23146284600F0ABFF1128D4
:102F300005D013A0FFF701FE002010B070BD0120E6
:102F4000FBE700002442444753412C25432C2564D1
:102F50002C25642C25642C25642C25642C25642CBC
:102F600025642C25642C25642C25642C25642C25B3
:102F7000642C25642C25662C25662C25662A0000E9
:102F80004244475341207061727365206572726FCD
:102F9000722100002DE9F04192B0074688461446A0
:102FA0005C212046FDF7E4F84146384601F083F8FD
:102FB00004F158010A1F131F04F14800CDE90F3234
:102FC00011910E90011F0A1F131F1438CDE90B3207
:102FD0000D910A90011F0A1F131F1438CDE9073203
:102FE00009910690011F0A1F0C381C3BCDE90230E5
:102FF000CDE904210C38211D2346124ACDE90010E9
:103000004146384600F03EFF06466068401E850097
:10301000281DA168814202DAA068401B00E004205C
:103020000546032000EB8505AE4201DB132E06DDCD
:1030300005A0FFF782FD002012B0BDE8F08101205D
:10304000FAE70000CC410008424447535620706123
:10305000727365206572726F72210000F0B5CDB099
:1030600005460E46144680212046FDF781F831467C
:10307000284601F020F804F1780004F1700104F111
:10308000680204F16003CDE90932CDE90B10203864
:103090002039203A203BCDE90532CDE907101C3814
:1030A000011F183A183BCDE90132CDE903101C3855
:1030B0000DAB0FA231460090284600F0E3FE0E282B
:1030C00005D018A0FFF739FD00204DB0F0BD0DA8C8
:1030D000FDF759F80746224639460DA8FEF71EFCB3
:1030E00020B115A0FFF729FD0020EEE70120ECE755
:1030F00024474E4747412C25732C25662C25432C0D
:1031000025662C25432C25642C25642C25662C252E
:10311000662C25432C25662C25432C25662C2564FE
:103120002A000000474E47474120706172736520B6
:103130006572726F72210000474E474741207469E3
:103140006D65207061727365206572726F72210007
:103150002DE9F041C6B005460E46144640212046F2
:10316000FDF706F83146284600F0A5FF04F13900C6
:10317000411E06AB04F11802CDE90223CDE904108B
:1031800029383039234611A2CDE9001031462846AE
:1031900000F078FE0746072F06D014A0FFF7CDFCFD
:1031A000002046B0BDE8F08106A8FCF7ECFF8046A1
:1031B00004F11C02414606A8FEF7B0FB20B110A0A6
:1031C000FFF7BBFC0020ECE70120EAE724474E476D
:1031D0004C4C2C25662C25432C25662C25432C2570
:1031E000732C25432C25432A00000000474E474CF2
:1031F0004C207061727365206572726F72210000DD
:10320000474E474C4C2074696D6520706172736540
:10321000206572726F7221002DE9F041CEB0064632
:103220000F46144660212046FCF7A2FF394630467F
:1032300000F041FF04F15900411E04F15002CDE9B4
:103240000942CDE90B10201D011D083A04F140038D
:10325000CDE90532CDE9071034302831203A203B42
:10326000CDE90132CDE903101C380EAB12A239466C
:103270000090304600F006FE05460D2D08D00E2DBC
:1032800006D01AA0FFF759FC00204EB0BDE8F0812F
:103290000EA8FCF778FF8046224641460EA8FEF7AE
:1032A0003DFB20B116A0FFF748FC0020EDE72068A9
:1032B000643020600120E8E724474E524D432C251E
:1032C000732C25432C25662C25432C25662C254361
:1032D0002C25662C25662C25326425326425326423
:1032E0002C25662C25432C25432A0000474E524DA1
:1032F00043207061727365206572726F72210000E5
:10330000474E524D432074696D652070617273653C
:10331000206572726F72210070B588B005460E4646
:10332000144640212046FCF723FF3146284600F092
:10333000C2FE04F13900411E04F1300204F12803F9
:10334000CDE90432CDE9061019382039203A203B66
:10335000CDE90032CDE90210234611A231462846BC
:1033600000F090FD092805D016A0FFF7E6FB00202D
:1033700008B070BD207A54280AD1207E4D2807D18C
:1033800094F828004E2803D194F838004B2804D034
:1033900011A0FFF7D2FB0020EAE70120E8E70000D8
:1033A00024474E5654472C25662C25432C25662C45
:1033B00025432C25662C25432C25662C25432C25BE
:1033C000432A0000474E56544720706172736520AF
:1033D0006572726F72210000474E5654472070612B
:1033E000727365206572726F722028666F726D61EC
:1033F00074206572726F7229210000002DE9F0417E
:10340000C8B005460E4614461C212046FCF7B0FE07
:103410003146284600F04FFE45A946AA47AB201D7D
:10342000CDE9023204910190001D05AB12A2314694
:103430000090284600F026FD07464798A0F26C70E1
:103440002060062F06D014A0FFF777FB002048B0BD
:10345000BDE8F08105A8FCF796FE8046224641466D
:1034600005A8FEF75BFA20B110A0FFF766FB00206D
:10347000EDE70120EBE7000024474E5A44412C259C
:10348000732C2532642C2532642C2534642C25328F
:10349000642C2532642A0000474E5A444120706152
:1034A000727365206572726F72210000474E5A4434
:1034B000412074696D652070617273652065727258
:1034C0006F722100F0B5CDB005460E46144680213E
:1034D0002046FCF74DFE3146284600F0ECFD04F195
:1034E000780004F1700104F1680204F16003CDE991
:1034F0000932CDE90B1020382039203A203BCDE9A4
:103500000532CDE907101C38011F183A183BCDE9E8
:103510000132CDE903101C380DAB0FA231460090EB
:10352000284600F0AFFC0E2805D018A0FFF705FBD9
:1035300000204DB0F0BD0DA8FCF725FE0746224641
:1035400039460DA8FEF7EAF920B115A0FFF7F5FA04
:103550000020EEE70120ECE72447504747412C25A7
:10356000732C25662C25432C25662C25432C25649D
:103570002C25642C25662C25662C25432C25662CB1
:1035800025432C25662C25642A0000004750474718
:1035900041207061727365206572726F7221000044
:1035A00047504747412074696D65207061727365AB
:1035B000206572726F72210070B590B005460E469C
:1035C0001446B8212046FCF7D3FD3146284600F0CA
:1035D00072FD04F1B00104F1A80204F1A00304F1AA
:1035E0003400CDE90D320F910C90011F0A1F131FFB
:1035F0001038CDE909320B910890011F0A1F131FE3
:103600001038CDE9053207910490011F0838021FD8
:10361000231DCDE90032CDE90201234607A2314640
:10362000284600F02FFC112805D013A0FFF785FADB
:10363000002010B070BD0120FBE700002447504778
:1036400053412C25432C25642C25642C25642C25E2
:10365000642C25642C25642C25642C25642C25647D
:103660002C25642C25642C25642C25642C25662CA3
:1036700025662C25662A000047504753412070617B
:10368000727365206572726F722100002DE9F0413E
:1036900092B00746884614465C212046FCF768FD38
:1036A0004146384600F007FD04F158010A1F131F78
:1036B00004F14800CDE90F3211910E90011F0A1F4D
:1036C000131F1438CDE90B320D910A90011F0A1F08
:1036D000131F1438CDE9073209910690011F0A1F04
:1036E0000C381C3BCDE90230CDE904210C38211DFA
:1036F0002346124ACDE900104146384600F0C2FB8D
:1037000006466068401E8500281DA168814202DAD5
:10371000A068401B00E004200546032000EB85055F
:10372000AE4201DB132E06DD05A0FFF706FA0020EE
:1037300012B0BDE8F0810120FAE700001042000855
:103740004750475356207061727365206572726FDF
:10375000722100002DE9F041CEB006460F46144616
:1037600060212046FCF704FD3946304600F0A3FCFA
:1037700004F15900411E04F15002CDE90942CDE99E
:103780000B10201D011D083A04F14003CDE905325C
:10379000CDE9071034302831203A203BCDE9013201
:1037A000CDE903101C380EAB12A23946009030460A
:1037B00000F068FB05460D2D08D00E2D06D01AA08E
:1037C000FFF7BBF900204EB0BDE8F0810EA8FCF772
:1037D000DAFC8046224641460EA8FEF79FF820B14B
:1037E00016A0FFF7AAF90020EDE7206864302060FA
:1037F0000120E8E7244750524D432C25732C2543E4
:103800002C25662C25432C25662C25432C25662C3F
:1038100025662C2532642532642532642C25662CDD
:1038200025432C25432A00004750524D4320706108
:10383000727365206572726F722100004750524D9D
:10384000432074696D6520706172736520657272C2
:103850006F722100FEB505460E461446002020601A
:103860006060A0603146284600F025FC0B4A04F158
:103870000800211D2346CDE90102009108A231462E
:10388000284600F0FFFA0746042F04D00AA0FFF7ED
:1038900054F90020FEBD0120FCE700006C0200206E
:1038A0002447505458542C2532642C2532642C253E
:1038B00032642C25732A00004750545854207061FC
:1038C000727365206572726F7221000070B588B0E6
:1038D00005460E46144640212046FCF749FC314679
:1038E000284600F0E8FB04F1380004F1300104F14F
:1038F000280204F12003CDE90332CDE90510203878
:103900002039203A2346CDE90021029010A2314609
:10391000284600F0B7FA082805D015A0FFF70DF9E2
:10392000002008B070BD207A54280AD1207E4D288E
:1039300007D194F828004E2803D194F838004B287A
:1039400004D010A0FFF7F9F80020EAE70120E8E72B
:103950002447505654472C25662C25432C25662C8D
:1039600025432C25662C25432C25662C25432A002F
:103970004750565447207061727365206572726FAC
:1039800072210000475056544720706172736520C1
:103990006572726F722028666F726D617420657235
:1039A000726F722921000000014600200861012089
:1039B0007047000070B50446002600F05FFAC56845
:1039C000FF2D01DC4FF4807514212046FCF7D0FB5D
:1039D0002846FEF72DFDA06018B904A0FFF7ADF84A
:1039E00001E0E5600126304670BD0000496E737548
:1039F0006666696369656E74206D656D6F727921A5
:103A0000000000002DE9F04104460E46002725681D
:103A10005DB1686830602F68A8682060206808B9C8
:103A2000002060602846FEF7ADFB3846BDE8F08117
:103A30002DE9F041054688461446002700BFE86896
:103A4000A04201DAEE6800E02646324641462846AA
:103A500000F008F80744A41B002CF0D13846BDE85C
:103A6000F08100002DE9F84F05468A469046002671
:103A7000002428694044E968884202DB2846FFF7B1
:103A800093FF2A69A968881842465146FCF757FBFC
:103A900028694044286100BF2A69911BAA689019CF
:103AA0006A46FFF76DF8074657B946B12B699B1B6D
:103AB0001A462B61AB6899191846FCF740FBC3E125
:103AC0000098002874DB2A69921B511EAA683244B0
:103AD000501CFFF7EBF881460C20FEF7A9FC041EF2
:103AE00000D1B5E100206060B9F1400F7CD014DC5A
:103AF000B9F1080F7DD009DCB9F1010F22D0B9F17D
:103B0000020F3AD0B9F1040F70D152E0B9F1100FA1
:103B10006DD0B9F1200FF7D167E1B9F5806F67D0AB
:103B200009DCB9F1800F7CD0B9F5807F7AD0B9F586
:103B3000007FE9D107E1B9F5006F74D0B9F5805F76
:103B4000E2D190E08020FEF773FC606000B97FE175
:103B5000012020606268A96888193946FFF7B2FC25
:103B600050B9606820B16068FEF70CFB002060600F
:103B70002046FEF707FB002457E1B820FEF758FC6B
:103B8000606000B964E1022020606268A968881959
:103B90003946FFF711FD50B9606820B16068FEF743
:103BA000F1FA002060602046FEF7ECFA00243CE1C8
:103BB00047E15C20FEF73CFC606000B948E104206E
:103BC00020606268A96888193946FFF75FFD50B91F
:103BD000606820B16068FEF7D5FA0020606020467A
:103BE000FEF7D0FA002420E1C9E002E018E11FE06E
:103BF00071E06020FEF71CFC606000B928E108203D
:103C000020606268A96888193946FFF7A3FD70B97A
:103C1000606820B16068FEF7B5FA00206060204659
:103C200002E0C7E073E03AE0FEF7ACFA0024FCE003
:103C30004020FEF7FDFB606000B909E11020206024
:103C40006268A96888193946FFF740FE50B9606874
:103C500020B16068FEF796FA002060602046FEF70B
:103C600091FA0024E1E08020FEF7E2FB606000B9F9
:103C7000EEE04FF4805020606268A96888193946E8
:103C8000FFF7ECF950B9606820B16068FEF77AFA86
:103C9000002060602046FEF775FA0024C5E0602031
:103CA000FEF7C6FB606000B9D2E04FF40060206010
:103CB0006268A96888193946FFF7AEFA50B960689A
:103CC00020B16068FEF75EFA002060602046FEF7D3
:103CD00059FA0024A9E04020FEF7AAFB606000B971
:103CE000B6E04FF4806020606268A96888193946A0
:103CF000FFF712FB50B9606820B16068FEF742FA26
:103D0000002060602046FEF73DFA00248DE01C2074
:103D1000FEF78EFB606000B99AE04FF4807020607F
:103D20006268A96888193946FFF768FB50B960686E
:103D300020B16068FEF726FA002060602046FEF79A
:103D400021FA002471E04020FEF772FB606000B9A8
:103D50007EE04FF4007020606268A96888193946D7
:103D6000FFF7F6F950B9606820B16068FEF70AFA0B
:103D7000002060602046FEF705FA002455E05C2034
:103D8000FEF756FB606000B962E040202060626888
:103D9000A96888193946FFF7FDF850B9606820B165
:103DA0006068FEF7EFF9002060602046FEF7EAF950
:103DB00000243AE0B820FEF73BFB606000B947E022
:103DC000802020606268A96888193946FFF778F872
:103DD00050B9606820B16068FEF7D4F900206060D7
:103DE0002046FEF7CFF900241FE00C20FEF720FB51
:103DF000606000B92CE0202020606268A968881902
:103E00003946FFF727FD50B9606820B16068FEF7BA
:103E1000B9F9002060602046FEF7B4F9002404E000
:103E20002046FEF7AFF9002400BF00BF4CB1686820
:103E300008B1686884606C60286800B92C60002054
:103E4000A0603E44002427E600BF3046BDE8F88F5E
:103E500014B12046FEF796F902A0FEF76EFE4FF071
:103E6000FF30F3E7496E73756666696369656E7462
:103E7000206D656D6F727921000000000048704769
:103E8000180000200FB42DE9FF5F04468B4604EBB9
:103E90000B080120029000264FF00009002001903D
:103EA0008246009011A80390EAE00298012806D00B
:103EB000022813D0032817D004280ED12BE0109825
:103EC0000078252802D10220029006E014F8011B98
:103ED00010980078814200D0D9E0CDE00026DDF8CE
:103EE00040900320029000BFFCF71CF90068109975
:103EF0000978405C202800D1BEE004200290109890
:103F0000484507D91098A0EB09010A224846FEF758
:103F1000FBFD064600BF27466EB91098007863285F
:103F200003D010980078432805D12078109949785B
:103F3000884200D001262EB1A019404501D8344452
:103F40000DE0A4E01098407840B1A8EB040210986E
:103F500041782046FCF71EF9041E00D14446444532
:103F600000D994E0012002900098401C00900025A8
:103F7000E61B10980078632812D008DC432810D084
:103F8000452828D0472824D0532830D112E065286E
:103F900020D066281BD067281AD0732827D108E0C4
:103FA00000BF039820C8039016B10DB1387828706F
:103FB0001DE000BF039820C803903EB135B13246E2
:103FC00039462846FCF7BBF80020A8550FE000BF93
:103FD00000BF00BF00BF039820C8039036B12DB1C9
:103FE00031463846FEF775FDC5E9000100BF00BF48
:103FF00005B141E0039802C80D1E039000D13BE0DB
:1040000006B939E0109800786F2829D006DC5828C6
:104010001DD0642807D069282BD105E075280CD065
:10402000782826D112E000BF0A2231463846FEF732
:104030006BFD0190019828601CE00A223146384649
:10404000FEF762FD8246C5F800A013E000BF102213
:1040500031463846FEF758FD8246C5F800A009E013
:10406000082231463846FEF74FFD8246C5F800A0CB
:1040700000E00CE000BF00BF00BF1098401C109093
:104080001098007810B14445FFF40FAF00BF002036
:104090000390009804B0BDE8F01F5DF814FB722196
:1040A000016000214160012181600021C160016146
:1040B00041618161704770B506460C46FFF7DEFE30
:1040C00005681DB114B121463046A84770BD10B532
:1040D00004464FF4CC612046FCF74AF8201DFFF758
:1040E000DEFF002020620120606210BD00B583B0B9
:1040F0000A460021CDE9001101466846FCF74DFB58
:10410000DDE9000103B000BD70B505460E4608A00C
:10411000FDF700FB002405E0295D08A0FDF7FAFA91
:10412000601C84B2B442F7DB05A0FDF7F3FA70BD62
:104130000D0A54726163653A200000002563000097
:104140000A000000004040404040404040404141A3
:10415000414141404040404040404040404040405C
:1041600040404040400502020202020202020202F6
:1041700002020202022020202020202020202002F3
:104180000202020202029090909090901010101083
:10419000101010101010101010101010101010101F
:1041A00002020202020288888888888808080808B3
:1041B000080808080808080808080808080808087F
:1041C0000202020240000000454100082442444728
:1041D00053562C25642C25642C25642C25642C2511
:1041E000642C25642C25642C25642C25642C2564E2
:1041F0002C25642C25642C25642C25642C25642C0A
:1042000025642C25642C25642C25642A00000000DC
:104210002447504753562C25642C25642C25642CA8
:1042200025642C25642C25642C25642C25642C25E0
:10423000642C25642C25642C25642C25642C256491
:104240002C25642C25642C25642C25642C25642ABB
:1042500000000000474E5A4441000000474E4747C7
:104260004100000047504747410000004244475387
:10427000410000004750475341000000474E524D57
:10428000430000004750524D43000000474E565433
:10429000470000004750565447000000474E474C27
:1042A0004C0000004750545854000000424447530B
:1042B000560000004750475356000000DC420008FB
:1042C000000000206C000000681700084843000848
:1042D0006C000020044C000078170008000000006B
:1042E0000102030401020304060708090204060888
:1042F00000000000000000000000000000000000BE
:10430000000400006442000874420008B44200083F
:104310008442000894420008A4420008AC4200080D
:104320006C420008544200089C4200088C4200087D
:104330007C4200085C420008000000000000000011
:08434000000000000000000075
:04000005080000ED02
:00000001FF
